:100000000C942E030C9475030C9475030C947503D7
:100010000C9475030C9475030C9475030C94750380
:100020000C9475030C9475030C94C52C0C94982DAA
:100030000C941C270C9475030C9475030C94750395
:100040000C9475030C9475030C9475030C94750350
:100050000C9475030C9487270C9475030C9475030A
:100060000C9475030C9475030C9475030C94750330
:100070000C9475030C9475030C9475030C94750320
:100080000C9475030C9475030C9475030C94750310
:100090000C9475030C9475030C9475030C94750300
:1000A0000C9475030C9475030C9475030000010007
:1000B000010001000100010000005F00600061001C
:1000C0000100000000005C005D005E000100000017
:1000D000000059005A005B00010000000000C25CF3
:1000E000C35CC55CC65C00000000000000000000AE
:1000F0002A2B280000000000000000000000000083
:1001000000000029000000002C1E3420212224348D
:100110002627252E362D3738271E1F20212223245F
:1001200025263333362E37381F0405060708090AFB
:100130000B0C0D0E0F101112131415161718191A97
:100140001B1C1D2F3130232D350405060708090A15
:100150000B0C0D0E0F101112131415161718191A77
:100160001B1C1D2F3130354C00000000000000002A
:10017000000000000000000000000000000000007F
:100180000000000000000000000000007E0F00D40E
:10019000FFFFFFC7000000781E0F0500047F3F1F10
:1001A000643214643214783C1E1E140A052223257E
:1001B0002628292A2C2D2F3032333536383A3B3D2C
:1001C0003E4042434547494A4C4E5051535557597A
:1001D0005A5C5E6062646668696B6D6F7173757797
:1001E000797B7D7F81838587898A8C8E9092949696
:1001F000989A9C9E9FA1A3A5A7A8AAACAEAFB1B3A5
:10020000B4B6B8B9BBBCBEBFC1C2C3C5C6C7C9CAF4
:10021000CBCCCDCED0D1D2D2D3D4D5D6D7D7D8D9B6
:10022000D9DADADBDBDBDCDCDCDCDCDDDDDDDDDC14
:10023000DCDCDCDCDBDBDBDADAD9D9D8D7D7D6D526
:10024000D4D3D2D2D1D0CECDCCCBCAC9C7C6C5C3E8
:10025000C2C1BFBEBCBBB9B8B6B4B3B1AFAEACAA35
:10026000A8A7A5A3A19F9E9C9A98969492908E8CE5
:100270008A89878583817F7D7B79777573716F6DBF
:100280006B6968666462605E5C5A59575553515099
:100290004E4C4A4947454342403E3D3B3A3836354D
:1002A0003332302F2D2C2A292826252322FFAA7FFE
:1002B0005540000101010101010101010202020298
:1002C0000202020202030303030303030304040400
:1002D00004040404050505050506060606060707C9
:1002E00007070708080808090909090A0A0A0B0B81
:1002F0000B0C0C0C0D0D0D0E0E0E0F0F0F10101120
:1003000011111212131314141515161617171818A5
:1003100019191A1A1B1B1C1D1D1E1E1F202021220D
:1003200022232424252626272829292A2B2C2D2D53
:100330002E2F30313232333435363738393A3B3C70
:100340003D3E3F404142434445464748494A4C4D63
:100350004E4F50515354555658595A5B5D5E5F612C
:100360006264656668696B6C6D6F707273757778BF
:100370007A7B7D7E8082838587888A8C8E8F91931D
:100380009596989A9C9EA0A2A3A5A7A9ABADAFB144
:10039000B3B5B7BABCBEC0C2C4C6C9CBCDCFD1D429
:1003A000D6D8DBDDDFE2E4E7E9EBEEF0F3F5F8FACF
:1003B000FDFFFD377A585A000004E6D6B446020025
:1003C000210116000000742FE5A3E0026101225D07
:1003D000003D8889C65436C3174FE4E3352B2C21E2
:1003E00082808CC0FF2BEB2444A1EFA90A478BD558
:1003F000EC8E32FA93C1533576CB99D34FC8E206CF
:100400002355B507C3BD4087E82B046324098076D4
:10041000DAF2E879B3870A18C285254F5E829BEC31
:100420004CED7264FFBA148396DCFB735D3FBED261
:100430004E634AB7A9742C80028BFDB37A873010C3
:100440001483737778F567BDFDB756FD6DA964AD6C
:10045000B3B7AA7BDC5520A1AC8066446D9B3663A4
:100460009EF38982AE15426738AF2D2CFB8C055761
:1004700073A56255CCDAA7BD0D342AF3778C6D6F66
:10048000E5EC30E77197B0A755200C58528F13C395
:100490007A578E4E5F0C0B7BB6E3BBFAFD571EB648
:1004A00069F79E97DF7DB1023FF701EA16408D554F
:1004B00083062835BE3EECF9E36434FDE7591A7033
:1004C000D439E8B5B116453D81BF3E58A137C26069
:1004D0003E2EA8D66CEA1646402B5AF05A0EC3059B
:1004E0008008AD031B81ECAFE688D59C2A03AFA141
:1004F0003399000000000D9D1D1615C9C5D30001DC
:10050000BE02E2040000D7D42AE2B1C467FB0200B5
:1005100000000004595A1C037600690061006C0059
:100520003A00660036003400630032006200330097
:100530006300000014034E0055004D005F00720080
:10054000650076002E00320000000A0332004C00E5
:100550003100500000000403090409025B0003019C
:1005600000A0FA09040000010301010009211101A2
:1005700000012240000705810308000A0904010068
:1005800002030000000921110100012222000705D9
:100590008203200001070503032000010904020073
:1005A00001030000000921110100012232000705AA
:1005B000840320000A1201100100000008EDFE383B
:1005C000132320010203010660FF0961A1010962F2
:1005D000150026FF00952075088102096315002685
:1005E000FF00952075089102C005010980A10185D1
:1005F0000319012AB700150126B70095017510816E
:1006000000C0050C0901A101850419012AA00215E9
:100610000126A002950175108100C005010906A1FF
:1006200001050719E029E7150025019508750181E5
:10063000029501750881010507190029FF1500269B
:10064000FF00950675088100050819012905950523
:1006500075019102950175039101C00011241FBE1F
:10066000CFEFDAE0DEBFCDBF04B603FE27C0809136
:10067000EA029091EB02A091EC02B091ED0287307A
:10068000904BA740B04BD1F41092EA021092EB02CB
:100690001092EC021092ED0214BE84B7877F84BFE3
:1006A0000FB6F894A89580916000886180936000EF
:1006B000109260000FBEE0E0F8E3099511E0A0E0C1
:1006C000B1E0E2E6F2E602C005900D92A43EB10769
:1006D000D9F722E0A4EEB1E001C01D92AA3EB20714
:1006E000E1F70E9482290C94DA300C940000CF9339
:1006F000DF939C01FB019A9581159F4160F5E9010B
:10070000CC27D170D901AA27B270B90166277470BD
:10071000A9014427587034FF10C080E1CD2B09F4A3
:1007200080E0AB2B09F08062672B09F08064452BD9
:1007300009F08068DF91CF91099481E0CD2B09F415
:1007400080E0AB2B09F08260672B09F08460452BB9
:1007500089F38860EFCFDF91CF910895CF93DF9336
:10076000EC01805E9109089720F06EE27FE120970E
:1007700011F46DE87CE1CE010E9477038C2FDF91AC
:10078000CF910C94961BCF93DF93EC010E941F1C1A
:10079000CE01805E9109089720F065E37FE1209704
:1007A00011F464E97CE1CE01DF91CF910C947703E1
:1007B00081E0089581E008950C94DA0308950C9483
:1007C000DE031F93CF93DF9300D000D00F92CDB7FD
:1007D000DEB749835A836B833091400289819A81C5
:1007E00031111DC06623B9F02223A9F00E947E2496
:1007F000182F682F89819A810E94252469817A8126
:10080000812F0F900F900F900F900F90DF91CF914D
:100810001F910C9444170E945424182FEFCF0E946C
:100820007E2469817A81EDCFFC01262F40815181A0
:100830006281738184810C94E103CF93DF93D82F7D
:10084000C92F60E00E9414046D2F7C2FDF91CF919F
:100850000C94DF038F929F92AF92BF92CF92DF9260
:10086000EF92FF920F931F93CF93DF9300D000D0AE
:10087000CDB7DEB76B017C0181E090E0A0E0B0E095
:100880004C015D0104C0880C991CAA1CBB1C4A9534
:10089000D2F7B501A4014C015D0104C0880C991C7C
:1008A000AA1CBB1C2A95D2F7482959296A297B29F9
:1008B00004C0880F991FAA1FBB1F0A95D2F78A018F
:1008C0009B010C211D212E213F210417150726070E
:1008D0003707F9F49C01AD012C293D294E295F29E8
:1008E00029833A834B835C8369817A818B819C81E4
:1008F0000F900F900F900F90DF91CF911F910F915C
:10090000FF90EF90DF90CF90BF90AF909F908F902F
:10091000089580959095A095B0954C015D018C202F
:100920009D20AE20BF2089829A82AB82BC82DCCF20
:100930000F93CF93DF9300D000D0CDB7DEB7262F33
:10094000042F40918D0250918E0260918F02709120
:10095000900249835A836B837C83482F69817A8113
:100960008B819C810E942A040F900F900F900F9012
:10097000DF91CF910F910C94DF220E94C3270E9438
:10098000C725811102C00E946B260C94D2070C94DB
:10099000D50708950E944E1F0E94C9042FEF84E3DB
:1009A0009CE0215080409040E1F700C000000C9492
:1009B000AB270F931F93CF93DF938C01EB010E9422
:1009C0006A12882389F1BE01C8010E94DC038823D2
:1009D00059F1BE01C8010E94D318882329F1BE0134
:1009E000C8010E9428198823F9F0BE01C8010E949D
:1009F000FB198823C9F0BE01C8010E940E1188238B
:100A000099F08A81882339F001158CE5180751F097
:100A10000E3D1C4579F0CE01DF91CF911F910F91D2
:100A20000C94D8030E94CA0480E0DF91CF911F91FB
:100A30000F9108950E946B26F7CFCF93DF93D82FA5
:100A4000C92F61E00E9414046D2F7C2FDF91CF919C
:100A50000C94D904DF92EF92FF920F931F93CF93E0
:100A6000DF93E82FF0E0E851FF4FD490282F269530
:100A70002695269530E0F901E857FE4F04918770DE
:100A800010E0082E02C0159507950A94E2F7017050
:100A90001127F901E858FE4FE490F12C082E02C00E
:100AA000F594E7940A94E2F791E0E922FF24F90132
:100AB000E859FE4FC491D0E002C0D595C7958A95FC
:100AC000E2F7C170DD270115110519F081EE0E94D2
:100AD000961BE114F10419F086EE0E94961B8D2DF1
:100AE0000E94851CEF2819F086EE0E941F1C012B26
:100AF00019F081EE0E941F1CCD2B51F08CE2DF918A
:100B0000CF911F910F91FF90EF90DF900C94851C77
:100B1000DF91CF911F910F91FF90EF90DF9008959B
:100B2000EF92FF920F931F93CF93DF93EC01162F59
:100B30000AE08881882309F454C0813009F04EC04E
:100B40008981813099F47E0122E0E20EF11C8A81D4
:100B50000E94851CE7012196812F815050F3EFE917
:100B6000FFE03197F1F700C00000F7CF823041F489
:100B70007E0182E0E80EF11C8A810E94961BEACF7A
:100B8000833041F47E01E2E0EE0EF11C8A810E9486
:100B90001F1CE0CF843011F02196DDCF2A812296F0
:100BA00090E080E0AE014F5F5F4F2053330B2A305F
:100BB000310548F0019778F2EFE9FFE03197F1F75E
:100BC00000C00000F7CF089FB001099F700D1124ED
:100BD000C901860F971F2981EA01E4CF0E942A05E7
:100BE000BACFDF91CF911F910F91FF90EF900895B1
:100BF00060E00C94900508950C94FB0581E0089545
:100C00000C94FE05CF93C82F0E94FC058C2FCF912A
:100C10000C940006CF93DF930E9444170E94F606BF
:100C2000EC01811522E5920708F053C0811531E5EA
:100C3000930708F0AEC08F3B9105B8F4883A910550
:100C400008F099C0853A910568F4049738F491E06A
:100C500080E0219709F090E0C92FD82FCE01DF91D5
:100C6000CF910895A497D064F9CF811540E59407FA
:100C7000A0F4C11580E4D80708F088C0C83ED105AB
:100C800030F4C03ED10550F7D0E0C0E0E7CFCE0150
:100C90009A9581159F4110F3F7CFF4E096958795CB
:100CA000FA95E1F783702C2F26952695237040E264
:100CB000249F90011124382B8C2F8370C1E0D0E049
:100CC00002C0CC0FDD1F8A95E2F7C22BD32BDC6864
:100CD000C5CFC11586E5D80730F5C11595E5D9070B
:100CE00008F06BC0C11524E5D207C0F49C2F96957F
:100CF00096959E0123703327C115D34508F04EC049
:100D0000C1E0D0E002C0CC0FDD1F2A95E2F720E25F
:100D1000929FC0011124C82BD92BD9CFDC2FCC270F
:100D2000C46FD06A9BCFC1153AE5D30788F4C115CB
:100D300049E5D40708F04CC0CE0198558F3F910586
:100D400011F008F0A1CFDC2FCC27C06FD06A86CF7E
:100D5000CE0190568115904208F096CF8D2F8F715D
:100D60000E948E0790E0982F882788279F719C010A
:100D70002C2BE9012BC0C85AD0E0CC0FDD1FC65D7B
:100D8000DE4F0990D881C02DD46468CFDF70D06A5F
:100D900065CFD82FCC27C16FD06A60CFC1E0D0E03B
:100DA00002C0CC0FDD1F2A95E2F730E2939FC0010D
:100DB0001124C82BD92BDA6851CF8C2F0E948E07B3
:100DC000C82FD0E0DC2FCC27CC27DF71D06246CFF4
:100DD0008C2F8F700E948E0734E0D695C7953A9578
:100DE000E1F7CF70DC2FC82FD06938CF803E910556
:100DF00099F1C8F48133910509F476C048F4893239
:100E0000910509F46AC08A32910509F474C0089505
:100E100089339105D1F082389105B9F08533910578
:100E200009F454C00895843E910599F138F4823E46
:100E30009105F9F0833E910509F10895863E9105EB
:100E400099F1873E9105B9F108952091DB02237055
:100E5000A1F080EE90E008952091DB0220FD52C0C9
:100E60003091DC0230FF09C024FF4FC090E080E0E9
:100E700004C02091DB0222FDF7CF08952091DB0210
:100E800022FD46C03091DC0230FDE3CF24FFF5CFD8
:100E9000EDCF2091DC0221FFF0CF8091DB0284FDB9
:100EA000E5CF87EE90E008952091DB0223FFE5CFA8
:100EB00024FDDCCFF6CF2091DB0223FD2CC0309146
:100EC000DC0231FFE3CF84EE90E008952091DB0255
:100ED00025FFD3CF89E290E008952091DB0225FF22
:100EE000CCCF85E390E008952091DB0226FFC5CFAB
:100EF0008AE290E008952091DB0226FFBECF81E3D5
:100F000090E0089589E390E0089583EE90E00895DD
:100F100082EE90E0089586EE90E008959091DB02D5
:100F200092FF06C0282F28712830F9F4877F84604B
:100F300093FF06C0282F28712831F1F4877E846141
:100F40002091DC0220FF06C0382F38713830D9F4E8
:100F5000877F816021FF06C0282F28712831D1F4B6
:100F6000877E816194FD877E0895282F2471243027
:100F7000F9F68B7F8860DCCF282F2471243101F7AC
:100F80008B7E8861DDCF382F3171313019F78E7F3C
:100F90008860E0CF282F2171213121F78E7E886172
:100FA000E1CF08950C94D10708950C94D407E82F4D
:100FB000F0E0ED54FD4F80810895089580EA8A9510
:100FC000F1F7089500C008950C94DE07F894E82F17
:100FD000E295EF70F0E041A18F7021E030E0B901BF
:100FE00002C0660F771F8A95E2F7CB01962F909586
:100FF000942391A392A1892B82A37894089586EFDC
:101000000E94E60787EF0E94E60781E30E94E60759
:1010100083E30E94E60782E30E94E60785E30E94DD
:10102000E60784E30E94E60786EC0E94E60787E96C
:101030000E94E60786E60E94E60784E90E94E6072A
:10104000AEEAB2E01C92E3EBF2E0108211961C9241
:101050001197118212961C921297128213961C926B
:101060001397138214961C92148285E00E94B5088F
:101070000C94BD04BF92CF92DF92EF92FF920F9338
:101080001F93CF93DF930EE511E0CEEAD2E0C12C9F
:10109000D12CEE24E394F12CF80181918F01F89486
:1010A000E82FE295EF70F0E021A18F70A70102C058
:1010B000440F551F8A95E2F7CA01922F982B91A3EE
:1010C00092A18095892382A378940E94E207E8E5A3
:1010D000F1E030E020E0B12C4191A42FA295AF7057
:1010E000B0E090968C9190E04F7002C095958795F6
:1010F0004A95E2F780FD35C08E2D022E01C0880F83
:101100000A94EAF7B82A2F5F3F4F2630310521F7BE
:10111000F801319780810E94E60754E0C5120E94D1
:10112000E4078881B816F9F0B88281E0D82AC39420
:10113000219685E0C812B0CF2D2D45E063EB72E01B
:101140008EEA92E00E94B6080E94C7048D2DDF91BE
:10115000CF911F910F91FF90EF90DF90CF90BF90B4
:10116000089580E0CFCF80E0E1CF0895FF920F9304
:101170001F93CF93DF93F82E092F162FD72FC42F4D
:10118000222349F081E08093E8010E944C2790934C
:10119000E7018093E6018091E8018823A1F0809126
:1011A000E6019091E7010E947827069760F0EF2D05
:1011B000F02FA12FBD2FCE0FDF2FD11DEC17FD0774
:1011C00041F41092E801DF91CF911F910F91FF90B0
:1011D000089581918D93F2CFCF92DF92EF92FF929B
:1011E0000F931F93CF93DF93D62FC72F982F711193
:1011F00013C0442329F0E82FF0E0EE54FD4F949102
:10120000692F792F892FDF91CF911F910F91FF9037
:10121000EF90DF90CF900895272F30E0E82FF0E097
:10122000442321F0EE54FD4FE491F0E086E0D89F96
:10123000700111240FEF10E0C701B8010E94562F72
:101240008D2F90E0880F991FA5E5A69FA001A79F6D
:10125000500D1124841B950BD82EDD0CD80EC8011F
:10126000821B930B8E9FA0018F9F500D9E9F500D50
:101270001124952FDC9EE0011124CD2FDD27D8010C
:10128000AC1BBD0BED01CE9FD001CF9FB00DDE9FFB
:10129000B00D11248B2FE801CD19D1096E01C29E2A
:1012A000E001C39ED00DD29ED00D1124CD2FDD279D
:1012B0000C1B1D0B0E9FE0010F9FD00D1E9FD00D2C
:1012C00011242E2F63307105D9F03CEFE31633E083
:1012D000F30668F461307105B9F062307105C1F050
:1012E000AFEFEA16F10448F4852F9D2F06C0643055
:1012F000710589F066307105B9F3692F722F83CFBC
:101300009B2F8E2F252FF9CF9E2F2B2F852FF5CF9B
:101310008D2F9E2FF7CF8E2F2D2FEFCF41E00C94E6
:10132000EC0808950C948E09CF93DF93982F762FB5
:10133000842FE901692F0E949209798368838A8347
:10134000DF91CF910895473E08F046EE0C94940942
:101350008091B802982F9E7F61F4817082608093A3
:10136000B8028091BB02873E18F086EE8093BB02E4
:1013700008958635B0F381708465F1CF88E090E000
:101380000C947B300F931F93CF93DF938B01D82F57
:10139000C92F0E94A809A8016D2F7C2F88E090E03A
:1013A000DF91CF911F910F910C949930CF93DF93E0
:1013B00000D000D0CDB7DEB78091B8029091B902CD
:1013C000A091BA02B091BB0289839A83AB83BC839C
:1013D000BC01CD010F900F900F900F90DF91CF9136
:1013E0000C94C209CF93DF9300D000D0CDB7DEB705
:1013F000E8EBF2E083E0808311828FEF828386EE58
:101400008383148280819181A281B38189839A83AD
:10141000AB83BC83BC01CD010F900F900F900F9058
:10142000DF91CF910C94C2098091B80280FF02C075
:101430008695089580E00895CF93DF9300D000D083
:10144000CDB7DEB79091BC02933018F49F5F9093B4
:10145000BC028823B1F08091B8029091B902A091AA
:10146000BA02B091BB0289839A83AB83BC83BC016F
:10147000CD010F900F900F900F90DF91CF910C94B2
:10148000C2090F900F900F900F90DF91CF910895A8
:1014900081E00C941C0ACF93DF9300D000D0CDB72D
:1014A000DEB79091BC02992319F091509093BC0241
:1014B0008823B1F08091B8029091B902A091BA024C
:1014C000B091BB0289839A83AB83BC83BC01CD01FD
:1014D0000F900F900F900F90DF91CF910C94C20955
:1014E0000F900F900F900F90DF91CF91089581E0B2
:1014F0000C944B0A8091BC020895CF93DF9300D0E7
:1015000000D0CDB7DEB78093BC026623B1F08091E6
:10151000B8029091B902A091BA02B091BB0289833E
:101520009A83AB83BC83BC01CD010F900F900F90C9
:101530000F90DF91CF910C94C2090F900F900F90F4
:101540000F90DF91CF91089560E00C947D0A809117
:10155000B90208958091BA0208958091BB0208955E
:1015600070E00C947E11609108018091B80280FFB8
:101570000AC08091070123E0829FC0011124835497
:101580009D4F0C94B00A8091090190910A0123E0CB
:10159000829FF0011124E354FD4F891750F7118207
:1015A000108212828F5F3396F8CF9091B80290FF2D
:1015B00014C09091090120910A0133E0939FF0013A
:1015C0001124E354FD4F921710F00C94B30A818359
:1015D000608342839F5F3396F6CF0895CF93DF9366
:1015E00000D00F92CDB7DEB79091B80290FF0AC03D
:1015F0009E012F5F3F4F0E94A3094B8169818A8121
:101600000E94D50A0F900F900F90DF91CF9108950F
:10161000CF93DF93EC01EC81F0E0E355FE4F449172
:10162000E8EBF2E0628181810E94EE0A8C818F5F9B
:101630008C83DF91CF910895CF93DF93EC01E8EB9A
:10164000F2E0438162818C810E94EE0A8C818F5F7F
:101650008C83DF91CF9108950F931F93CF93DF93E6
:1016600000D00F92CDB7DEB78C018091E9018111D6
:101670000AC09E012F5F3F4F46EE6FEF0E94A30905
:101680008A818093E901F8016481613049F0623018
:10169000F1F08091E90140E0662331F040E019C0AB
:1016A0006091E90140E080E00E94D50AF801848160
:1016B00090E0019663E070E00E946A2F84830F90AF
:1016C0000F900F90DF91CF911F910F91089540914E
:1016D000E90180E060E0E8CFAF92BF92CF92DF9265
:1016E000EF92FF920F931F93CF93DF9300D000D020
:1016F00000D00F92CDB7DEB7182FF62E042FD22EC2
:101700009091B80290FF2BC0E92FE695AE2FB0E084
:10171000AD59BE4F8C9180931B029E7F923081F514
:101720009E012F5F3F4F812F0E94A3094B8169814A
:101730008A810E94D50A1093B902F092BA020093EE
:10174000BB02DD2061F08091B8029091B902A091B6
:10175000BA02B091BB02BC01CD010E94C20927961A
:101760000FB6F894DEBF0FBECDBFDF91CF911F91B2
:101770000F91FF90EF90DF90CF90BF90AF900895C2
:10178000823019F40091BB02D6CF863019F4109143
:10179000B902D1CF8930D9F3893169F6E9518E2F59
:1017A0008170C82EE695F0E0E355FD4FA590B4900A
:1017B000E12CBB2460910B01E61618F00E94B30ADD
:1017C000BACF2E2D30E0EA9CC001EB9C900D112485
:1017D00070E00E94562F812FC11013C0860F4091D8
:1017E0000901420F532F511D9A01220F331F240F5D
:1017F000351F23543D4F402F6F2D0E94A309E394C2
:10180000D9CF861BECCF282FE8EBF2E08181438112
:101810006281885F0C946C0B81E00C94030C282F80
:10182000E8EBF2E081814381628188500C946C0B7B
:1018300081E00C940F0C282FE8EBF2E0628131E19B
:10184000630F08F46FEF438181810C946C0B81E08E
:101850000C941B0C282FE8EBF2E0628131E1631B52
:1018600008F460E0438181810C946C0B81E00C945E
:101870002A0C282FE8EBF2E0438131E1430F08F412
:101880004FEF628181810C946C0B81E00C94390CD8
:10189000282FE8EBF2E0438131E1431B08F440E0FC
:1018A000628181810C946C0B81E00C94480C20E0E7
:1018B0000C946C0BEF92FF921F93CF93DF93EC018C
:1018C00010E0EE24EA94F12C60910B01161770F0F1
:1018D0000E94B30A9A818C8190FF27C08F5F8C830E
:1018E000DF91CF911F91FF90EF9008952091090112
:1018F000422F410F5527551FCA019A01220F331F4E
:10190000280F391F23543D4F70E0C7010E946A2FF2
:10191000962F8C814091BB026091BA02199F800D75
:1019200011240E94A3091F5FCFCF8150D8CFBF924F
:10193000CF92DF92EF92FF920F931F93CF93DF939B
:10194000FC0182810FEF80FF01E010E080910B012C
:101950001817C0F00E94B30A8091EB01013009F022
:1019600051C0811102C080910B0181508093EB0125
:10197000DF91CF911F910F91FF90EF90DF90CF906B
:10198000BF900895C0910901C12ED12CCC0DDD2D41
:10199000D11DCE01880F991FC80FD91FC354DD4F29
:1019A000198218821A8234E0E32EF12CB12C809136
:1019B000EB018B0D893004F18770082E000C990B18
:1019C000C816D90691F48091BB028E9DA0018F9D0F
:1019D000500D112455954795559547959E01609159
:1019E000BA028091B9020E94A309B00EF1E0EF1A89
:1019F000F108E9F61F5FAACF87FFDFCF90910B01B7
:101A0000890FDBCF90E0019660910B0170E00E949E
:101A10006A2FACCF0F931F93CF93DF93809109016F
:101A200090910A0123E0829FF0011124E354FD4FBD
:101A3000891740F1C0E0D3E060910B01C61740F177
:101A40000E94B30A209105018091EA01820F8093E0
:101A5000EA0190910601920F90930601191654F431
:101A6000082E000C990B40910B014150550B841727
:101A700095071CF0219520930501DF91CF911F91CF
:101A80000F9108951182108212828F5F3396D0CF0A
:101A90000C2F10E070E0C8010E946A2F209109010C
:101AA000820F482F50E02091EA01022E000C330BE8
:101AB00002171307BCF020910601022E000C330B15
:101AC000201731077CF08D9F9001112423543D4F46
:101AD0004091BB026091BA028091B9020E94A309B1
:101AE000CF5FAACFFA01EE0FFF1FE40FF51FE354FB
:101AF000FD4F118210821282F3CFEF92FF920F936B
:101B00001F93CF93DF93CDB7DEB72E970FB6F89420
:101B1000DEBF0FBECDBF8D879E87AD85BE85149677
:101B20001C91212F30E0D9010E94B52F9B01AC01FF
:101B30000E94CB2F69837A838B839C83E0E2F0E061
:101B4000E11BF109A5E5B0E09B01AC010E94CB2FA0
:101B500069877A878B879C879F01DF010E94AD2F61
:101B60006D837E838F8398879B01AC010E94D62F63
:101B70009B01AC0169817A818B819C81260F371F83
:101B8000481F591F69857A858B859C850E947E2F09
:101B9000F22E822F90E079E2721788F183E0289F7D
:101BA0009001112435952795122F109500E085E5B9
:101BB000E82EEF1880910B01081780F10E94B30AFC
:101BC000AD85BE8514969C9181E0992319F09032E1
:101BD00019F48FEF8093040180910401890FED8542
:101BE000FE8584832E960FB6F894DEBF0FBECDBF60
:101BF000DF91CF911F910F91FF90EF90089525E510
:101C000030E0D901A81BB90B9D01220F331F2A0F09
:101C10003B1F37FFC7CF2F5F3F4FC4CF8E2D01FD36
:101C20008F2D20910901E22FE00FFF27FF1F9F0159
:101C3000220F331F2E0F3F1F23543D4F412F609122
:101C4000BA020E94A3090F5FB5CF0F931F93CF93E2
:101C5000DF93EC0110E000E090910B01901711066A
:101C600009F06CF40E94B30A8C8190E001968170B7
:101C700099278C83DF91CF911F910F910895209127
:101C80000901A801420F511D9A01220F331F240F91
:101C9000351F23543D4F4C816091BA028091B902A7
:101CA00096959017110651F04CF0442349F040915D
:101CB000BB020E94A3090F5F1F4FCECF4423B9F38D
:101CC00040E0F7CF4F925F926F927F928F929F92F8
:101CD000AF92BF92CF92DF92EF92FF920F931F933A
:101CE000CF93DF93FC016280448081E08483EDEA3E
:101CF000F1E07490ECE2F2E0E491812C75E0972E33
:101D0000F2E0CF2EDD24D394AA24AA94B12C55243A
:101D10005A94E7190E2F10E080910B01881690F06D
:101D2000DF91CF911F910F91FF90EF90DF90CF90B7
:101D3000BF90AF909F908F907F906F905F904F90EB
:101D40000C94B30AE82CF12C82E0861568F09E9C76
:101D5000F0019F9CF00D1124E451FE4F8091B902D7
:101D600080838091BA028183411023C09E9CF00140
:101D70009F9CF00D1124E451FE4F1382128220919A
:101D80000901C701820F911D9C01220F331F280FEB
:101D9000391F23543D4F9E9CF0019F9CF00D112450
:101DA000E451FE4F4281618180810E94A3098394A6
:101DB000B3CF9E9CE0019F9CD00D1124C451DE4FF7
:101DC0008B818823E9F081508B83859DC00111248C
:101DD0006C8170E00E94562FFB01FF27E355FE4FF8
:101DE0008491E82FE719E59DC0011124B8010E94F4
:101DF000562F8091BB02689FB00111247A83BFCF18
:101E00000E944630AC019091BB02969591589C9DE2
:101E100090019D9D300D1124232F33274217530726
:101E20000CF0ADCF82E0861588F40E944630B501F3
:101E30000E946A2F88830E9446302091BA0226951C
:101E4000622F70E00E946A2F280F29839E9CF00168
:101E50009F9CF00D1124E451FE4F12828091BB0231
:101E6000893C58F088EC9E9CF0019F9CF00D112459
:101E7000E451FE4F8483838382CF8431A0F784E1D1
:101E8000F2CFCF93DF9300D000D0CDB7DEB7E8EB31
:101E9000F2E080818E7F808380819181A281B381F5
:101EA00089839A83AB83BC83BC01CD010E94C209A4
:101EB00010921C029FEFA0E7B2E09150A040B0400A
:101EC000E1F700C000000F900F900F900F90DF918E
:101ED000CF910C94B30AE8EBF2E080818E7F80838F
:101EE00010921C022FEF80E792E02150804090403A
:101EF000E1F700C000000C94B30A6091B802669547
:101F000070E04BE050E08CE091E00E945F30892B64
:101F100019F481E080931C020E944C2790931502D3
:101F2000809314020895CF93DF9300D000D0CDB7F3
:101F3000DEB79091B80290FF41C09170811134C01A
:101F400092609093B802662381F08091B8029091DC
:101F5000B902A091BA02B091BB0289839A83AB8384
:101F6000BC83BC01CD010E94C2096091B802669594
:101F700070E04BE050E08CE091E00E945F30892BF4
:101F8000D1F010921C0281E0809317024091BB02B5
:101F90006091BA028091B9020F900F900F900F904C
:101FA000DF91CF910C94570C8B3210F09465C9CF10
:101FB000880F982BC6CF0E947D0FE5CF0F900F9012
:101FC0000F900F90DF91CF910895682F8091B80204
:101FD00086958F5F8B3208F081E00C94930F81E03F
:101FE0000C94E50F682F9091B80296958FEF890FAA
:101FF000913009F48AE20C94930F81E00C94F20F73
:1020000061E00C94930FE8EBF2E0808181608083C3
:1020100086950C9400108091B80280FD0C94410FBD
:102020000C94031060E00C94930F80911A028111BC
:102030002EC00E94C725811104C00E946B260E94F9
:10204000F2090E94BE096093B8027093B9028093AE
:10205000BA029093BB026E7F61F40E94F2090E9463
:10206000BE096093B8027093B9028093BA0290934C
:10207000BB020E94A80910921C028091B80280FF46
:1020800003C086950E94121081E080931A02089581
:10209000E8EBF2E080818160808386950C941210D9
:1020A0000F931F93CF93DF9380911C02882309F431
:1020B00096C080911B02E091B802E695E81BE09380
:1020C0001602823091F5F0E0E755FE4FE491CE2FF5
:1020D000D0E008E01BE080911702882361F01092A5
:1020E00017020E944C2790931502809314021092BD
:1020F0001902109218020E944C27E0911402F091EC
:1021000015028E1B9F0B8F3F9F4708F068C0EC0F96
:10211000FD1FF0931502E093140284E192E0F801B0
:10212000DF91CF911F910F910994863049F4F0E02F
:10213000EA55FE4FE491CE2FD0E00CE11BE0CBCF6F
:10214000893051F4E695F0E0ED55FE4FE491CE2F45
:10215000D0E00AE51CE0BFCF8F3051F4E695F0E007
:10216000E056FE4FE491CE2FD0E007E91CE0B3CF5C
:10217000853149F4F0E0E356FE4FE491CE2FD0E0F4
:102180000AE01DE0A8CFC8E2D0E00DE71DE08831ED
:1021900009F4A1CF833239F4EBE9F1E0C591D49190
:1021A0000CE21BE098CFC4EFD1E005E21EE08432E0
:1021B00009F491CFC0EDD7E001E919E0853209F0CB
:1021C0008ACF8E2F63E00E944A2FE92FF0E0E85675
:1021D000FE4FE491CE2FD0E002E61EE07CCFDF91EF
:1021E000CF911F910F910895FA0181110994FB017C
:1021F000FDCFCF93DF93C82FD62F0E94140A8C17E0
:1022000040F00E94140A8D1720F4DF91CF910C94B6
:10221000EF0F8C2FDF91CF910C9400100F931F9331
:10222000CF938C01FB01C281CC2309F465C00E94CD
:102230001B258272F801E25CFC45E431F10538F4BB
:10224000E452FF4C0C94A02F0E940B10C0E08C2F86
:10225000CF911F910F9108954DEF5FE06FEE7FE0FA
:102260000E94F410F3CF4FEE5FE06DEF7FE0F8CF08
:1022700048E15CE06CE07CE0F3CF4CE05CE068E1DE
:102280007CE0EECF46E35CE067E27CE0E9CF47E24A
:102290005CE066E37CE0E4CF44E55CE065E47CE0A0
:1022A000DFCF45E45CE064E57CE0DACF47E75AE065
:1022B00068E47AE0D5CF48E45AE067E77AE0D0CF27
:1022C00081E00E940010C2CF65E082E00E94F91018
:1022D000BDCF68E086E0FACF6EE089E0F7CF64E139
:1022E0008FE0F4CF67E185E1F1CF88E1EACF62E2E8
:1022F00089E1ECCF83E2E5CFC1E0A9CF9C01AB013E
:10230000269A65B16F7B75B17064EFB7F894CA0116
:10231000880F991F840F951F820F931F82179307B1
:1023200041F4EFBF8FE594E00197F1F700C00000A2
:102330000895D9014D919D0158E075B9000000C084
:1023400047FF65B9440F000000C000C000C065B978
:1023500000C05A9591F7E2CF53985B9A52985A9AD7
:1023600089B183FB882780F94A9905C090E0892BC1
:1023700080931F02089592E0FACFE0911F02EE0FC2
:10238000EE0FE0931F0249B143FB882780F949B162
:1023900042FB222720F942FF02C022E030E0822BDC
:1023A000E82BE0931F02EF70F0E0E257FE4F8081D0
:1023B00090911E02890F80931E0220E0843054F019
:1023C00080911D028F5F80931D0260E080E00E947B
:1023D000911521E080911E028D3F54F480911D02E1
:1023E000815080931D0261E080E00E94911521E000
:1023F00080911E02082E000C990B64E070E00E9490
:102400006A2F80931E02822F089582E290E00E943C
:1024100073308F3089F483E290E00E947330803112
:1024200059F484E290E00E94733091E08A3209F01E
:1024300090E0892F8170089580E0FCCFCF93C82F62
:102440006FEF81116FE082E290E00E9487306FEFC2
:10245000C11160E183E290E00E9487306FEFC1110B
:102460006AE284E290E0CF910C94873080E00E9491
:102470001E120C94C1250895CF93DF9300D000D095
:10248000CDB7DEB785E290E00E947330282F30E0B0
:1024900050E040E0CA01B9010F900F900F900F90EB
:1024A000DF91CF91089585E290E00C9487300E94EF
:1024B0003B120E94051281110CC060E070E0CB015C
:1024C0000E9453120E9491160E94B71781E00C944B
:1024D0001E120895CF939C01FB01C281CC2301F110
:1024E00082519F45409720F58EEE820F0E94C717BC
:1024F000C0E08C2FCF91089581E00E94152343E026
:1025000062E081E00E949804F3CF81E00E944623BC
:1025100043E062E081E00E949804EBCF82E0F6CFD6
:1025200080319F4591F321313F45C1F3C1E0E1CFB7
:102530002031EFE53E0701F382E021313F45E9F22A
:10254000D8CF2FEFFC0120830895CF93DF93EC01C8
:1025500088818238C1F038F4803871F0813881F098
:10256000DF91CF9108958338D9F70E94A70A898314
:102570000E94AA0A8A83F4CF0E94AD0A8983F0CF11
:102580000E94140AFBCF0E947A0AF8CFCF93DF9300
:10259000EC018881823851F138F4803869F0813853
:1025A000B9F0DF91CF9108958338D9F70E94AD0A31
:1025B000482F6A81898108C0D9810E94AA0AC82F40
:1025C0000E94A70A4D2F6C2FDF91CF910C94570CCE
:1025D00089810E9412108981811104C0DF91CF91FD
:1025E0000C946B0FDF91CF910C9448108981DF918F
:1025F000CF910C94A40AEF92FF920F931F93CF9365
:10260000DF93CDB7DEB72E970FB6F894DEBF0FBEBF
:10261000CDBF8D839E83162FAD81BE81EC918091BD
:10262000220290912302892B79F0EE3F49F5119611
:102630008C91833018F08550833010F5612F8D8197
:102640009E810E9495141CC08D819E810196E4316B
:1026500050F4EE2351F0E150E33138F4F0E0E05172
:10266000FF4C0C94A02FEE3F49F3612F8D819E818A
:102670000E94A11205C0ED81FE81118289E0828352
:10268000612F8D819E812E960FB6F894DEBF0FBE0E
:10269000CDBFDF91CF911F910F91FF90EF900C94E0
:1026A0007B28AD81BE8111968C91823099F0833068
:1026B00011F18130D1F60E9458270E94A62F6F8316
:1026C000788789879A87ED81FE816283738384830B
:1026D0009583D6CF0E943C120E94A62F6B877C87E1
:1026E0008D879E87AD81BE8112966D937D938D936C
:1026F0009C931597C5CF8091170190911801892B54
:1027000009F4BECFED80FE80B2E0EB0EF11C00E0DC
:10271000802F0E94D707F70181937F010F5F05305B
:10272000B9F7AECFAD81BE8111968C9111978230F1
:1027300009F09BCF12968D919D910D90BC91A02D8B
:1027400089839A83AB83BC83BC01CD010E94A62FF1
:102750000E94531295CFED81FE8143816281818178
:102760000E94E915982789279827AD81BE81159683
:102770009C938E93149784CFED81FE8124813581C3
:102780003227232732274381628181810E940B16E1
:1027900077CF0E94911674CF0E94C61271CF0E940B
:1027A000A5126ECF0E94D6096BCF0E946017AD8133
:1027B000BE8111968C9364CF0E9462179827892757
:1027C0009827ED81FE81928381835ACFAD81BE81AE
:1027D00013968C911397682F70E08D3108F050CFCD
:1027E00011968D919C911297AD014C5F5F4F982788
:1027F000892798270E94651743CF809117019091F0
:102800001801892B09F43CCFED81FE818381682F6B
:1028100070E08D3108F034CF81819281AF014C5F3F
:102820005F4F9827892798270E948C1729CF0E94ED
:10283000B71726CF0E94D715BACFED81FE818381CD
:10284000682F70E08D3108F01BCF81819281AF013C
:102850004C5F5F4F9827892798270E94EB1610CF6F
:10286000AD81BE8113968C911397682F70E08D31E6
:1028700008F006CF11968D919C911297AD014C5F97
:102880005F4F9827892798270E941017F9CE0F933A
:102890001F93CF93DF9300D000D000D0CDB7DEB729
:1028A0008C019093D6028093D5021C821D821E82D9
:1028B0008EEF89838A8381E08B830E944C2781601D
:1028C0009D838C83011580E2180708F5C8010E94DA
:1028D000AE038FE39CE90197F1F700C000000E946E
:1028E0004C2781609D838C831B82011590E2190720
:1028F000A8F4C8010E94C30326960FB6F894DEBF61
:102900000FBECDBFDF91CF911F910F910895BE01F2
:102910006F5F7F4FC8010E94D904DBCFBE016F5F9C
:102920007F4FC8010E94D904E7CFEF92FF920F9327
:102930001F93CF93DF93CDB7DEB728970FB6F894E8
:10294000DEBF0FBECDBF8C01603219F5DC011196E0
:10295000EC911197E830E8F4F0E0ED5FFE4C0C9458
:10296000A02F88E0EEE9F1E0DE01119601900D92D2
:102970008A95E1F783E0F801808311821282138245
:1029800088E0FE013196D801149601900D928A9547
:10299000E1F728960FB6F894DEBF0FBECDBFDF91EA
:1029A000CF911F910F91FF90EF90089584E68C9343
:1029B00081E011968C93119712961C9212971396A0
:1029C0001C92E7CFFC018381682F70E0762F662789
:1029D0008281860F972F911D092E000CAA0BBB0B2D
:1029E00025E0880F991FAA1FBB1F2A95D1F7AC01BC
:1029F000BD01405E5F4F6F4F7F4F803EFFEF9F07EF
:102A0000AF07BF0730F6843621E09207A105B10574
:102A100008F0BFCF4536E1E05E076105710520F0A3
:102A200044E651E060E070E0481B590BBC016E5475
:102A30007C4FC80128960FB6F894DEBF0FBECDBFFD
:102A4000DF91CF911F910F91FF90EF900C94563032
:102A50001296FC9012971396EC9040E06E2D8F2DFD
:102A60000E943316982789279827F801918380833D
:102A700041E06E2D8F2D0E943316982789279827C5
:102A8000D80113969C938E93129783CFFC012581D6
:102A90003681322723273227448163818281289619
:102AA0000FB6F894DEBF0FBECDBFDF91CF911F915F
:102AB0000F91FF90EF900C945F1640E250E06FEFA3
:102AC00070E00E946C3080911701D8018C93809146
:102AD000220211968C935DCF81E090E090932302C7
:102AE0008093220282E390E090932102809320025F
:102AF00028960FB6F894DEBF0FBECDBFDF91CF9101
:102B00001F910F91FF90EF900C944C27809117012B
:102B1000F801808380912202818380912002828348
:102B200038CFCF92DF92EF92FF920F931F93CF9304
:102B3000DF93182F062FC0908D02D0908E02E09068
:102B40008F02F09090028091910290919202A09158
:102B50009302B0919402C82AD92AEA2AFB2ACFE12B
:102B6000D0E0D701C6010C2E04C0B695A795979565
:102B700087950A94D2F780FF12C0402F612F8C2FC7
:102B80000E9433168130910551F0DF91CF911F9152
:102B90000F91FF90EF90DF90CF900C944714219706
:102BA00000F7402F612F80E00E943316EECF84E0C3
:102BB000089550E0440F551F9CE0699F400D511D42
:102BC00011249CE3899F400D511D1124CA01869652
:102BD00008950F931F93CF93DF938430C8F465302B
:102BE000B8F44630A8F40E94D9158C010E947330C5
:102BF000C82FD0E0DC2FCC27C80101960E9473308B
:102C00009E01282BC901DF91CF911F910F9108954B
:102C100090E080E0F8CF0F931F93CF93DF93E9010B
:102C20008430E0F46530D0F44630C0F421153C45E2
:102C300031F42091170130911801232B79F00E9473
:102C4000D9158C016D2F0E9487306C2FC801019619
:102C5000DF91CF911F910F910C948730DF91CF912D
:102C60001F910F9108950F931F93CF93DF9384309B
:102C700018F5611121C04230F8F424E0829FE00190
:102C80001124842F90E0880F991FC80FD91FCA5EA6
:102C9000DE4FCE010E947330082F10E0102F002766
:102CA000CE0101960E9473309801282BC901DF9153
:102CB000CF911F910F91089590E080E0F8CF0F938E
:102CC0001F93CF93DF938901843030F5611124C0C5
:102CD000423010F521153C4531F420911701309117
:102CE0001801232BC9F094E0899FE0011124842F5F
:102CF00090E0880F991FC80FD91FCA5EDE4F612F61
:102D0000CE010E948730602FCE010196DF91CF91D6
:102D10001F910F910C948730DF91CF911F910F91EC
:102D200008958F929F92AF92BF92CF92DF92FF92BF
:102D30000F931F93CF93DF9380901701909018010A
:102D400081E090E09093180180931701B12CA12CA1
:102D5000C0E06501D0E014C0F801259134914F2DF9
:102D60006D2F8C2F0E940B160E5F1F4FF39486E081
:102D7000F812F2CF86E0C80ED11CDF5FD53039F0F3
:102D80008601000F111F04551F4FF12CE5CF21E0E4
:102D900030E040E060E08C2F0E945F1621E030E0E0
:102DA00041E060E08C2F0E945F16CF5F8EE1A80E9D
:102DB000B11CC43071F69092180180921701DF9116
:102DC000CF911F910F91FF90DF90CF90BF90AF9068
:102DD0009F908F900895EF92FF920F931F93CF9340
:102DE000DF93EC018A017C01E60EF71ECE01869688
:102DF000CE15DF0539F4DF91CF911F910F91FF9030
:102E0000EF900895C03FD10540F40E947330F8015F
:102E100080830F5F1F4F2196E9CFF8011082F9CF11
:102E2000CF92DF92EF92FF920F931F93CF93DF9396
:102E3000EC017B016A01803F910578F420EF30E0DE
:102E4000281B390B2617370740F0E80EF91E8C01B6
:102E5000C80186960E151F0549F4DF91CF911F9189
:102E60000F91FF90EF90DF90CF900895003F1105F4
:102E700040F4F801EC1BFD0BEC0DFD1D60810E9480
:102E800087300F5F1F4FE4CF462F672F209122021C
:102E900030912302232B89F47E3F39F44E3F69F4AD
:102EA0008091D5029091D6020895843030F4753027
:102EB00020F4463010F40C94E91590E080E0089579
:102EC00080E108958AED92E00895EF92FF920F93CA
:102ED0001F93CF93DF93EC018A017C01E60EF71E6E
:102EE000CE018A5D9E4FCE15DF0539F4DF91CF917B
:102EF0001F910F91FF90EF900895CA3D22E0D207F5
:102F000040F40E947330F80180830F5F1F4F2196B9
:102F1000E7CFF8011082F9CFCF92DF92EF92FF92C4
:102F20000F931F93CF93DF938C016A017C01E60E10
:102F3000F71EEC01CE018A5D9E4FCE15DF0549F4E8
:102F4000DF91CF911F910F91FF90EF90DF90CF9085
:102F50000895CA3D22E0D20740F4FE01E01BF10BC8
:102F6000EC0DFD1D60810E9487302196E3CFCF9349
:102F7000DF93C6E2D1E060E0CE010E948730219667
:102F8000C11584E0D807B9F7DF91CF910895BF92BA
:102F9000CF92DF92EF92FF920F931F93CF93DF9325
:102FA00000D000D0CDB7DEB7F82E2FE0281740F0C4
:102FB0008FEF93E00E94733006E211E08823D1F096
:102FC0000F900F900F900F90DF91CF911F910F9165
:102FD000FF90EF90DF90CF90BF900895011534E0FF
:102FE000130771F3C8010E947330811101C0FA9474
:102FF0000F5F1F4FF110F2CF8091260190912701B2
:10300000A0912801B091290189839A83AB83BC8365
:10301000BB24BA9478018FEFE81AF80AC8010E941D
:10302000733089831A82882359F2813009F049C0AC
:103030006801E2E0CE0ED11CC7010E947330E82E79
:103040008A83882309F4BCCFC6010E947330F82E0E
:103050008FEF8E0D833068F46801F3E0CF0ED11C42
:10306000FB82FF2021F0CE0101960E94F805860127
:10307000D1CF24E0E212FBCF680134E0C30ED11CB3
:10308000C80103960E947330282FFF2009F498CFBF
:10309000882309F495CF2150330BB29EA001B39E33
:1030A000500D1124EF2DE150FF0BCF01840F951F20
:1030B0000197E8F2EFE9FFE03197F1F700C0000077
:1030C000F7CFCE0101960E94F8056701D0CF0F938C
:1030D0001F93CF93DF93C42FD22FFC0182818823CB
:1030E000C9F0409326020E944C27909325028093BA
:1030F000240280E28C0F883008F050C0C77081E055
:1031000001C0880FCA95EAF7DF91CF911F910F9107
:103110000C948D1C10912602141335C0809124024A
:10312000909125020E947827883C910560F5C0E2C5
:10313000CD0F1D17B9F080E2810F883040F4177071
:1031400081E001C0880F1A95EAF70E94941CC830EC
:1031500048F481E09D2F977001C0880F9A95EAF797
:103160000E948D1C802F0E94851CC830B8F4D77037
:1031700081E001C0880FDA95EAF7DF91CF911F91C6
:103180000F910C94941C80E28C0F883038F4C77037
:1031900081E001C0880FCA95EAF7EFCFDF91CF91A8
:1031A0001F910F9108950F939C01CB01233F4CE594
:1031B0003407A1F190F4283DFCE53F0749F1293D92
:1031C0004CE53407E9F1273D3C45C1F0FC01828123
:1031D0008823E1F11092260219C0253FFCE53F0744
:1031E00019F1263F4CE5340729F1243F3C4571F79E
:1031F00007E225EE44EE64EF7CE505C006E221EE31
:1032000041EE67ED7CE50E94671880E00F9108951C
:1032100007E225EE45EE68ED7CE5F5CF06E221EE0E
:1032200040EE63EF7CE5EFCF06E221EE42EE65EF84
:103230007CE5E9CF07E225EE46EE66EF7CE5E3CFDD
:1032400008E221E045EE69ED7CE5DDCF81E0DECFEF
:10325000CF93DF93EC01FB018281882309F4C9C07D
:10326000C631FCE5DF07E0F4C2309CE5D907F0F099
:103270000E94DA259093DC028093DB02C631ECE5F4
:10328000DE0720F5C230FCE5DF0798F48091DB0211
:103290009091DC020E94E8250E944E1F80E006C04B
:1032A0009E012A5F3C452930310510F3DF91CF9113
:1032B0000895FE01E350FC458091DB028160E3311B
:1032C000F10588F4E55FFE4C0C94A02FCA5FDC4545
:1032D000C930D105D8F6C25EDE4CFE010C94A02F99
:1032E0008091DB0282608093DB02D0CF8091DB0291
:1032F0008460F9CF8091DB028860F5CF8091DC0299
:1033000081608093DC02C2CF8091DC028260F9CFC1
:103310008091DB028061E7CF8091DB028062E3CFA6
:103320008091DB028064DFCF0E944E1F8091DB0220
:103330008068D9CF8091DB028C60D5CF8091DC0290
:103340008360DFCF8091DB028E7FCDCF8091DB0267
:103350008D7FC9CF8091DB028B7FC5CF8091DB024F
:10336000877FC1CF8091DC028E7FCBCF8091DC0242
:103370008D7FC7CF8091DB028F7EB5CF8091DB023E
:103380008F7DB1CF8091DB028F7BADCF0E944E1F2E
:103390008091DB028F77A7CF8091DB02837FA3CF61
:1033A0008091DC028C7FADCF8091DB0282FB99277C
:1033B00090F921E0922790FB82F990FB83F993CF5B
:1033C0008091DC02982F909591708E7F892B90FBD5
:1033D00081F997CF0E944E1F9091DB02892F97FBB6
:1033E00087F9805880CF81E00E946D264FCF80E022
:1033F000FBCF81E05BCFCF93DF93EB0186319C4520
:1034000011F50E941B259A81992399F08A7A91E0FF
:1034100009F490E090932702811109C089E20E948B
:10342000F6240E945C2580E0DF91CF91089585E32A
:10343000F6CF80912702811104C089E20E94FD2409
:10344000F0CF85E3FBCF81E0EFCF90932D02809307
:103450002C020895E0912C02F0912D02309721F07A
:103460000190F081E02D099480E00895E0912C0214
:10347000F0912D02309721F00280F381E02D099424
:10348000089520912A0230912B022817390771F0F4
:1034900090932B0280932A02E0912C02F0912D024E
:1034A000309721F00680F781E02D0994089520914E
:1034B0002802309129022817390771F090932902C8
:1034C00080932802E0912C02F0912D02309721F098
:1034D0000084F185E02D099408950E945827609397
:1034E0003C0270933D0280933E0290933F026093B2
:1034F00038027093390280933A0290933B02089508
:103500000E94582760933C0270933D0280933E02D4
:1035100090933F0260933402709335028093360299
:1035200090933702089585B7806885BF85B7806816
:1035300085BF0895089508950C949A1A08950C94DF
:103540009E1A0E94931A8FEB95E20E94BC270E945C
:103550009B1A0C949C1A81E008950C94AB1A089560
:1035600008950E9443270E94FF070E9457120E945D
:10357000D7270E9415100E94AC110C949F1AAF928D
:10358000BF92CF92DF92EF92FF920F931F93CF9350
:10359000DF9300D000D00F92CDB7DEB70E94AF1AF4
:1035A0000E94B01A0E943A0881110E946D1A8FE29F
:1035B000A82E82E0B82E10E000E0C02E802F0E94DE
:1035C000D707F82EF501E1905F01E81609F452C023
:1035D0008091A20281FD0E94DD078E2D8F25D12CC6
:1035E000EE24E394982F9E2109F43FC00E94AD1A67
:1035F000882399F0D982CA82FE2081E009F480E014
:103600008B830E944C278160782F9D838C83498116
:103610005A816B818D810E94611BF801E15DFD4F34
:103620008081E826E0820E9450100E94BD11811125
:103630000E94801A0E942A1A90912E02891789F1FD
:103640000E942A1A80932E020F900F900F900F90D5
:103650000F90DF91CF911F910F91FF90EF90DF902E
:10366000CF90BF90AF900C940206D394EE0CF6E08E
:10367000DF12B8CF0F5F1F4F0530110509F09DCF46
:103680008FEF89838A831B820E944C278160782F69
:103690009D838C8349815A816B818D810E94611B3E
:1036A000C2CF0F900F900F900F900F90DF91CF919E
:1036B0001F910F91FF90EF90DF90CF90BF90AF9050
:1036C0000895DF92EF92FF920F931F93CF93DF93B2
:1036D000CDB7DEB72B970FB6F894DEBF0FBECDBFC8
:1036E0007A878B87F42E052F162FE72ED82E61119F
:1036F0000E943D257E2DEC82DD824F2D502F612FC3
:103700008D2D90E02B960FB6F894DEBF0FBECDBF87
:10371000DF91CF911F910F91FF90EF90DF900C946C
:10372000B121FC01808191810C94C024CF93C82FDA
:10373000882309F482C08238C1F40E942A1A81FDCC
:103740007CC089E30E94F6240E945C252FEF31EEB5
:1037500084E0215030408040E1F700C0000089E360
:103760000E94FD24CF910C945C258338A1F40E9423
:103770002A1A80FD62C083E50E94F6240E945C251F
:103780009FEF21EE34E0915020403040E1F700C03F
:10379000000083E5E5CF8438A1F40E942A1A82FD57
:1037A0004CC087E40E94F6240E945C258FEF91EEC6
:1037B00024E0815090402040E1F700C0000087E401
:1037C000CFCF8CEF8C0F813A90F46C2F8091190140
:1037D00090911A010E948426882329F08C2F0E9440
:1037E000FD240E945C258C2F0E94F624BBCF80E232
:1037F0008C0F883048F4C77081E001C0880FCA95EB
:10380000EAF70E941E25AECF8BE58C0F833038F48B
:103810002C2F2452330BC901CF910C94411AC85A52
:10382000C73158F4EC2FF0E0EE0FFF1FE955FE4FC3
:1038300080819181CF910C94571ACF91089588235C
:1038400009F44BC0823871F40E942A1A81FF45C0E6
:1038500089E30E94F6240E945C2589E30E94FD24EE
:103860000C945C25833859F40E942A1A80FF35C0D5
:1038700083E50E94F6240E945C2583E5EFCF84381F
:1038800059F40E942A1A82FF28C087E40E94F62475
:103890000E945C2587E4E2CF9CEF980F913AF0F20A
:1038A00090E2980F983050F4877091E001C0990F22
:1038B0008A95EAF7892F0E942425D2CF9BE5980F9D
:1038C000933020F490E080E00C94411A885A8731BC
:1038D00020F490E080E00C94571A08951F93CF9342
:1038E000DF93182FEB010E94961B209731F4812F54
:1038F000DF91CF911F910C941F1C8FE99FE00197DE
:10390000F1F700C000002197F0CF70E060E089334C
:1039100011F460E570E00C946E1C882321F00E9485
:103920001E250C945C250895882321F00E942425EF
:103930000C945C250895CF92DF92EF92FF920F9343
:103940001F93CF93DF9300D000D00F92CDB7DEB797
:103950007C016D837983FC011281058102950F70D2
:103960000E941425C82E8823A1F0C12E112389F0AE
:103970008981807F803429F08D81805EC12C8830E0
:1039800040F082E00E94A7250E94142591E0C82EF5
:10399000C926D980D2948FE0D822F8E0DF1609F446
:1039A000FAC0FD1508F454C023E02D1518F18981E3
:1039B000807F39813F70398391E09D1508F05BC0AD
:1039C000803221F029812295207F29833D81332374
:1039D00009F488C0313009F4A5C0112309F4ADC041
:1039E000002309F4A4C0F701858180FF5BC08F70BC
:1039F00085839DC0E4E0DE1609F4B1C0ED2DE850EA
:103A0000FF0B349720F40E942A1A0E940206CC2051
:103A100009F4D7C10E94102580FDD3C1F70112829D
:103A20000E940A250E941523C7010E94061F0E94BA
:103A30000A250F900F900F900F900F90DF91CF916C
:103A40001F910F91FF90EF90DF90CF900C94462341
:103A5000F9E0DF1609F449C186E08D0D8F708230E0
:103A600068F62D81223F09F051C189818F711123A0
:103A700009F47FC148C1882321F009810295007FA4
:103A800009831123B9F01981112361F08D81805EC2
:103A9000883018F00D81011109C089810E941E250E
:103AA0000E945C258D810E94961BA8CF89810E946F
:103AB0002F25F6CF8D810E941F1C1981112309F437
:103AC0009DCF8D81805E883018F00D81011106C078
:103AD00089810E9424250E945C2590CF89810E94C3
:103AE0003525F9CF112391F0011107C00E9443251C
:103AF0000981802B0E948D1C81CF0130B9F70E9473
:103B000043251981812B0E94492578CF011106C0D8
:103B10000E94522589810E94941C70CF013009F4C3
:103B20006DCFF6CF112329F0063008F067CF8981D9
:103B3000E1CF053008F062CFEDCF002359F30D81BE
:103B4000093349F41FEF27EE33E011502040304095
:103B5000E1F700C000008D810E941F1C4FCF8981BA
:103B600086958695837069F0813009F047CF8D8105
:103B700099819370111102C090E080E00E94571A61
:103B80003DCF8D8199819370111102C090E080E04A
:103B90000E94411A33CF8981837009F050C01111FE
:103BA0002DCF2D81229526952770220F220F8D81F2
:103BB0008F7090E0B0E0A0E0022E04C0880F991F43
:103BC000AA1FBB1F0A94D2F70D8140E050E0BA0152
:103BD00004FF0FC04FE050E060E070E004C0440F0D
:103BE000551F661F771F2A95D2F74095509560950F
:103BF000709519811695169513701D838A019B0186
:103C0000082B192B2A2B3B2B09831A832B833C83EC
:103C10001D8169817A818B819C81123051F0133032
:103C200059F0113019F00E948B22E8CE0E946322D5
:103C3000E5CE0E94B322E2CE0E946122DFCE8695BD
:103C4000112311F089818170882309F4D7CE2D8149
:103C5000229526952770220F220F8D818F7090E07C
:103C6000B0E0A0E0022E04C0880F991FAA1FBB1F5E
:103C70000A94D2F70D8140E050E0BA0104FF0FC072
:103C80004FE050E060E070E004C0440F551F661F35
:103C9000771F2A95D2F740955095609570951981B8
:103CA0001695169513701D838A019B01082B192BFD
:103CB0002A2B3B2B09831A832B833C831D8169812B
:103CC0007A818B819C81123051F0133059F0113080
:103CD00019F00E94D42392CE0E94AC238FCE0E9472
:103CE000FC238CCE0E94DF2289CE09810F700983CC
:103CF000112329F0802F0E9415238D81FBCE8D8109
:103D00000E94941C89810E94462378CE2D81233FF6
:103D100060F4203FE1F0213F41F1112309F440C05C
:103D20000111C0CE89818F7124C03D81333F21F1C3
:103D3000343F99F7112351F109810F710983802FC5
:103D40000E94152363E089810E94922557CE11239A
:103D500041F0053008F052CE89818F710E947B239B
:103D60004DCE063008F04ACEF7CF89818F711123EE
:103D700051F20E94152342CE112329F089818F71BF
:103D80000E94F0223BCE0E94EB2238CE81E00E94BE
:103D9000A725023008F432CE82E00E94A7252ECE5D
:103DA000002361F01D81193309F0D5CE2FEF37EED6
:103DB00083E0215030408040E1F7CBCE89818F7184
:103DC000A2CF0F900F900F900F900F90DF91CF9197
:103DD0001F910F91FF90EF90DF90CF9008950F9378
:103DE0001F93CF93DF93EC01688179818A810E94D0
:103DF000CC248C010E9424240E946022B801CE01B0
:103E0000DF91CF911F910F910C949B1CCF93DF9367
:103E1000EC018B819C81892B29F0888199818923F0
:103E20008F3F59F4DF91CF910895CE010E94EF1E8C
:103E3000CE01DF91CF910C941D04CE010E941D058F
:103E40008111F3CF0E941425882361F38A8188238E
:103E500049F382E0DF91CF910C94A725882321F0CC
:103E60000E942F250C945C250895882321F00E9440
:103E700035250C945C25089590E080E00E94411A5D
:103E800090E080E00E94571A0E943D250E94402544
:103E90000C945C250E9404250C943C1F0E942C2548
:103EA0000C944A1F282F892F82958F70903C80F4A4
:103EB0008A30B0F4843020F4823090F480E00895A9
:103EC0008630E1F781E0283E88F0213FB9F70EC047
:103ED0008C3011F08F3091F793FB882780F908958B
:103EE00081E0203F39F018F4283E40F70895243F40
:103EF00029F7FCCF08950E94C0240C94521FCF9341
:103F0000DF9300D000D00F92CDB7DEB70F900F90A7
:103F10000F900F900F90DF91CF910895CF93DF9383
:103F200000D000D000D0CDB7DEB726960FB6F894FB
:103F3000DEBF0FBECDBFDF91CF9108951F93CF930A
:103F4000DF93E091410216E0809142028E1304C09B
:103F5000DF91CF911F910895CE2FD0E01E9FF001E9
:103F60001124ED5BFD4F4081518162817381848119
:103F700095810E948E1FFE013196E770E5CF40913A
:103F80007302509174026091750270917602809173
:103F90007702909178020C948E1F1F93CF93DF933A
:103FA00080917802807FA9F480917502882389F03E
:103FB00080914102C091420260917302709174023B
:103FC000A0917602B0917702D62FD72316E0C813BE
:103FD00004C0DF91CF911F91089590E0109711F0E8
:103FE000DF3F19F401968770F2CF189F9001199F57
:103FF000300D1124F901ED5BFD4F41814713F2CFE4
:1040000040814613EFCF42814111ECCF438154816F
:104010004A1B5B0B483C510528F7809178028F7052
:10402000806180937802F901E85BFD4F80818F7099
:104030008061808383E792E00E94061FDF91CF9129
:104040001F910C949E1FAF92BF92CF92DF92EF927E
:10405000FF920F931F93CF93DF93CDB7DEB72B97CC
:104060000FB6F894DEBF0FBECDBF8C0185E0F8011E
:10407000DE01179601900D928A95E1F7F8014081D3
:104080005181E28083E7C82E82E0D82E60917602CB
:10409000709177026115710509F444C19091730222
:1040A00020917402822F89238F3F09F43BC1A380A2
:1040B000B480F0907502F501E61BF70BFF2009F4C0
:1040C000E0C080917802382F307FE83CF10508F09D
:1040D000B2C0311179C0FE2C251323C0941321C026
:1040E000E1101FC08F708061809378020E94BF1F13
:1040F000C6010E94061F80917802F80185838F2DEA
:104100002B960FB6F894DEBF0FBECDBFDF91CF91D7
:104110001F910F91FF90EF90DF90CF90BF90AF90E5
:104120000895AB2829F0842F85238F3F09F016C10D
:1041300080E0F82FF170DF2EE091410220914202E1
:1041400036E080FD1CC0EE20D1F2809178028160C3
:1041500080937802F12CD3CF8E2F90E03E9FF00118
:104160001124ED5BFD4F6181651306C0608164130E
:1041700003C06281E612E7CFFC013196E770E213DB
:10418000EBCF4F8358878F8198850E94C024292FB9
:1041900022952F70903260F0225F2F70223078F4D9
:1041A0009F7051F0F8019581907F31F4D12C0AC0B5
:1041B0009F7011F08823D1F3805E8830B8F3C80176
:1041C0000E94061FFD2C9BCF251306C0941304C02C
:1041D000F801EE2009F470C04F8358878F819885CD
:1041E0000E947B1F882319F1EE2009F1809178024B
:1041F000803270F020917302309174023A832983E7
:104200001B82BD82AC828E83CE0101960E94061F66
:1042100086E0F801A3E7B2E001900D928A95E1F7FC
:104220000E94CD1F0E94BF1FFF24F39468CFC801D6
:104230000E94061FF9CF311113C07A2DBB86AA86C2
:104240006E2D8B850E947F1F83E792E00E94061FE0
:1042500086E0F60111928A95E9F70E94BF1F7ACF96
:104260002513BACF9413B8CFE110B6CFF8018583E8
:10427000C8010E94061F86E0F60111928A95E9F7AF
:104280003ECFE83CF10508F040C0FE2CEE2079F26C
:1042900025132AC0941328C08091780280FD1BC08A
:1042A000982F907FC1F0F8018583903F31F0982FCF
:1042B000907F905F8F70892B8583C8010E94061FB5
:1042C00086E0F801A3E7B2E001900D928A95E1F74C
:1042D0000E94BF1F14CF86E0F801A3E7B2E001906F
:1042E0000D928A95E1F70BCF4F8358878F81988580
:1042F0000E947B1F81118CCF809178028160809316
:104300007802C8010E94061FFACE7A2DBB86AA86C3
:104310006E2D8B850E947F1F86E0F60111928A9593
:10432000E9F7D6CFEE2009F482CF4F8358878F81EB
:1043300098850E947B1FF82E882309F478CF86E0A9
:10434000F801A3E7B2E001900D928A95E1F783E7C7
:1043500092E00E94911B0E94CD1FBACF81E08E2572
:10436000E8CE1F93CF93DF93CDB7DEB72C970FB670
:10437000F894DEBF0FBECDBF4F83588769877A8719
:104380008B879C87CE0107960E942320882369F0A3
:104390008A859B85892B39F04F815885842F852309
:1043A0008F3F09F077C016E065C086E0FE013796C2
:1043B000DE01119601900D928A95E1F76A857B8561
:1043C0006115710581F35F814885842F85238F3FB7
:1043D00051F32091420230E0C9010196877099277C
:1043E000E0914102E817190671F40E944E1F1092E5
:1043F00042021092410286E0E3E7F2E0DF011D9203
:104400008A95E9F7D0CF59834A837D836C8396E000
:10441000929FD001939FB00D1124AD5BBD4FFE0163
:10442000319601900D929A95E1F7809342020E9495
:104430009E1FB9CF819FC00111248D5B9D4F0E94AB
:1044400023208823E9F0E09141021E9FF00111240E
:10445000ED5BFD4F40815181628173818481958143
:104460000E948E1F8091410290E0019687709927EB
:104470008093410280914102909142028913DACFE8
:104480002C960FB6F894DEBF0FBECDBFDF91CF9153
:104490001F91089569857A858B859C850E948E1F62
:1044A00082CF08950C9451220E945222609391026F
:1044B0007093920280939302909394020C943C1F09
:1044C00008950C945422CF93DF9300D000D0CDB741
:1044D000DEB769837A838B839C838091910290916C
:1044E0009202A0919302B091940229813A814B816A
:1044F0005C81282B392B4A2B5B2B29833A834B83F6
:104500005C83CA01B9010F900F900F900F90DF915B
:10451000CF910C945422CF93DF9300D000D0CDB72D
:10452000DEB769837A838B839C838091910290911B
:104530009202A0919302B091940229813A814B8119
:104540005C81282339234A235B2329833A834B83C5
:104550005C83CA01B9010F900F900F900F90DF910B
:10456000CF910C945422CF93DF9300D000D0CDB7DD
:10457000DEB769837A838B839C83809191029091CB
:104580009202A0919302B091940229813A814B81C9
:104590005C81282739274A275B2729833A834B8365
:1045A0005C83CA01B9010F900F900F900F90DF91BB
:1045B000CF910C9454220C9451220C94DB220E9433
:1045C000DD2260938D0270938E0280938F02909310
:1045D00090020C943C1F60E070E0CB010C94DF2251
:1045E0000F931F93CF93DF9300D000D0CDB7DEB7EA
:1045F00041E050E060E070E08A019B0104C0000FE0
:10460000111F221F331F8A95D2F709831A832B8328
:104610003C83C901B8010F900F900F900F90DF916C
:10462000CF911F910F910C94DF220F931F93CF9383
:10463000DF9300D000D0CDB7DEB741E050E060E0BE
:1046400070E004C0440F551F661F771F8A95D2F78C
:1046500080918D0290918E02A0918F02B091900274
:104660008A019B01082B192B2A2B3B2B09831A83C8
:104670002B833C83C901B8010F900F900F900F90CE
:10468000DF91CF911F910F910C94DF220F931F9315
:10469000CF93DF9300D000D0CDB7DEB741E050E03C
:1046A00060E070E004C0440F551F661F771F8A95B5
:1046B000D2F7409550956095709580918D029091BC
:1046C0008E02A0918F02B09190028A019B01082373
:1046D00019232A233B2309831A832B833C83C90193
:1046E000B8010F900F900F900F90DF91CF911F9115
:1046F0000F910C94DF220F931F93CF93DF9300D081
:1047000000D0CDB7DEB741E050E060E070E004C01B
:10471000440F551F661F771F8A95D2F780918D022F
:1047200090918E02A0918F02B09190028A019B011C
:10473000082719272A273B2709831A832B833C83C1
:10474000C901B8010F900F900F900F90DF91CF919A
:104750001F910F910C94DF22CF93DF9300D000D0F4
:10476000CDB7DEB769837A838B839C8380918D027A
:1047700090918E02A0918F02B091900229813A818E
:104780004B815C81282B392B4A2B5B2B29833A8365
:104790004B835C83CA01B9010F900F900F900F906B
:1047A000DF91CF910C94DF22CF93DF9300D000D024
:1047B000CDB7DEB769837A838B839C8380918D022A
:1047C00090918E02A0918F02B091900229813A813E
:1047D0004B815C81282339234A235B2329833A8335
:1047E0004B835C83CA01B9010F900F900F900F901B
:1047F000DF91CF910C94DF22CF93DF9300D000D0D4
:10480000CDB7DEB769837A838B839C8380918D02D9
:1048100090918E02A0918F02B091900229813A81ED
:104820004B815C81282739274A275B2729833A83D4
:104830004B835C83CA01B9010F900F900F900F90CA
:10484000DF91CF910C94DF220895292F220FE22FC0
:10485000E90FEE0FE80F8E2F877041E001C0440F83
:104860008A95EAF7E695E695E69585E0E89FF001FA
:104870001124E758FD4F30E020E070E05191DF0156
:104880001197CB01022E02C0969587950A94E2F704
:10489000817081958527842385278C932F5F3F4FD7
:1048A0002530310559F70895292F220FE22FE90FFE
:1048B000EE0FE80F9E2F9770E695E695E69585E05A
:1048C000E89FF0011124E758FD4F50E040E080E000
:1048D000219130E0092E02C0369527950A94E2F71F
:1048E00021703327042E01C0220F0A94EAF7822B8D
:1048F0004F5F5F4F4530510559F70895BF92CF92F2
:10490000DF92EF92FF920F931F93CF93DF938C016F
:10491000C0908D02D0908E02E0908F02F0909002B5
:104920008091910290919202A0919302B091940291
:10493000C82AD92AEA2AFB2ACFE1D0E0BC2ED70127
:10494000C6010C2E04C0B695A795979587950A9435
:10495000D2F780FD0EC0219788F7B12C8B2DDF9107
:10496000CF911F910F91FF90EF90DF90CF90BF906C
:104970000895B8018C2F0E940A06019761F3EECFCB
:10498000CF93DF93D82FC92F0E947E246D2F7C2FC9
:10499000DF91CF910C940A061F93CF93DF93162FCC
:1049A000D72F90914002992339F0862F972FDF91CE
:1049B000CF911F910C94C024882391F0862F972FBC
:1049C0000E947E24C82F682F812F9D2F0E942524AE
:1049D000612F7D2F8C2FDF91CF911F910C940A06B0
:1049E000862F972F0E945424C82FF2CF682F8091D2
:1049F000190190911A010C94BE26682F809119011B
:104A000090911A010C94C0268091190190911A017D
:104A10000C94C2268091950285958595859508957B
:104A2000809195028770089590919502977081E02A
:104A300009F480E008958091A10208959091A10267
:104A4000982B9093A1020895982F90958091A102A0
:104A500089238093A10208951092A1020895909154
:104A6000A002982B9093A0020895982F9095809182
:104A7000A00289238093A00208951092A0020895B5
:104A800010929F02089580919602089508950C94C3
:104A9000462590919602981721F0809396020C94E7
:104AA0004725089580919602882329F01092960256
:104AB00080E00C9447250895E0911901F0911A01C6
:104AC0008091A1028083E0911901F0911A01808107
:104AD0009091A002892B8083E0911901F0911A0135
:104AE000808190919F02892B8083909196029923D7
:104AF00081F0E0911901F0911A018081892B808366
:104B00008091190190911A010E94722681110E94D0
:104B100052258091190190911A010C94361A08952A
:104B20000C948F2598E0899F90011124622B60934B
:104B300095020E941523809195028595859585950E
:104B40000C9490251092950280E00C949025909101
:104B500095028095892380939502282F277071F400
:104B6000282F082E000C330B9217130639F0859569
:104B7000859585950E9446230C94A225089580E092
:104B800008956FEF7FEF90E080E00C94A53090E007
:104B900080E00E9481309C0181E02B3E3E4F09F075
:104BA00080E0089582E090E00C94733083E090E020
:104BB0000C947330CF9384E090E00E947330C82F40
:104BC00081E290E00E947330982F8C2FCF9108954E
:104BD000CF93682FC92F84E090E00E9487306C2F1C
:104BE00081E290E0CF910C948730AB01BC018FE063
:104BF00090E00C949930AB01BC0183E190E00C94FF
:104C0000993060E070E0CB010C94FB2560E070E02F
:104C1000CB010E94F5250C9401266BEE7EEF90E00F
:104C200080E00E94A53060E082E090E00E94873042
:104C300060E083E090E00E94873010929102109231
:104C40009202109293021092940260E084E090E04D
:104C50000E94873060E081E290E00E94873060E04F
:104C600085E090E00E94873060E086E090E00E945E
:104C700087306FEF87E090E00E94873040E050E09F
:104C8000BA0188E090E00E94993060E08DE090E009
:104C90000E94873040E050E0BA0188E190E00E9435
:104CA000993060E087E190E00E94873040E050E07A
:104CB000BA018CE190E00E94993060E080E290E0DF
:104CC0000E94873040E050E0BA0188E190E00E9405
:104CD00099300C9406260C940D26682F8EE090E0F7
:104CE0000C948730AC019C012E5F3F4F485F5F4FB3
:104CF00080E02417350709F40895F90191919F0187
:104D00009923B9F38F5FF5CF9C01662351F0FC0125
:104D10003296285F3F4F8191861729F0E217F307FB
:104D2000D1F780E0089581E008959C01FC0132965E
:104D30008FEF90E04191461751F08F3F19F44111E8
:104D400001C0892F9F5F9630A9F78F3F09F408951E
:104D5000280F311D87FD3A95F901628308959C0162
:104D6000FC013296285F3F4F8191861303C0DF011B
:104D700011971C92E217F307B9F708950C94952642
:104D80000C94AF26FC01329686E0DF011D928A95D5
:104D9000E9F70895089508950C94CB268091E102D7
:104DA000843049F10E94CC2680E00E9402061092D5
:104DB000A30288E190E020E40FB6F894A8958093D0
:104DC00060000FBE2093600083B7817F846083BF43
:104DD00083B7816083BF7894889583B78E7F83BFC4
:104DE0000FB6F894A8958091600088618093600068
:104DF000109260000FBE08950895CF930E94CA26B6
:104E00000E943A080E94FC26C0E08C2F0E94D7071F
:104E1000811105C0CF5FC530C1F7CF91089581E002
:104E2000FCCF08950C9411270E944E1F0E942A1A4D
:104E30000E9402060C9412271F921FB61F92112483
:104E40008F939F93AF93BF938091A302811113C05F
:104E50008091D7029091D802A091D902B091DA0244
:104E60004196A11DB11D8093D7029093D802A093C3
:104E7000D902B093DA02BF91AF919F918F911F90A9
:104E80001FBE1F90189582E084BD93E095BD9AEFF8
:104E900097BD80936E0008952FB7F8948091D70244
:104EA0009091D802A091D902B091DA022FBF089553
:104EB000CF93DF9300D000D0CDB7DEB78FB7F89493
:104EC0002091D7023091D8024091D9025091DA0254
:104ED00029833A834B835C838FBF69817A818B817D
:104EE0009C810F900F900F900F90DF91CF910895BC
:104EF0009C014FB7F8948091D7029091D802A0916D
:104F0000D902B091DA024FBF821B930B08957894B7
:104F10001F921FB61F9211248F939F93AF93BF933D
:104F20008091D7029091D802A091D902B091DA0273
:104F30000196A11DB11D8093D7029093D802A09332
:104F4000D902B093DA02BF91AF919F918F911F90D8
:104F50001FBE1F90189587E797E7909301088093ED
:104F6000000888E19AE00FB6F894A8958093600055
:104F70000FBE90936000FFCF9093E5018093E40112
:104F800008950C9436120E943A088FE39CE9019729
:104F9000F1F700C000000E943A0880E00E94D707A5
:104FA00080FF04C00E94C1270C94AB270895CF93C3
:104FB000DF9300D000D0CDB7DEB70E94C7258111A6
:104FC00002C00E946B260E94D2258093A2020E94FA
:104FD000DA259093DC028093DB020E94D625282FED
:104FE00030E050E040E0CA01B9010E9461228091A6
:104FF0008D0290918E02A0918F02B09190028983D0
:105000009A83AB83BC83BC01CD010F900F900F90AE
:105010000F90DF91CF910C94DD228091AC02089526
:105020000895CF93DF9300D00F92CDB7DEB7909164
:10503000E102943011F589836A837B839093E900C0
:105040008FEF9091E800815095FD06C095ED9A95FF
:10505000F1F700008111F5CF8091E80085FF0DC0C8
:1050600050E040E063E070E0CE0101960E94732AB8
:105070008091E8008E778093E8000F900F900F905A
:10508000DF91CF910895BC0184E00C941128BC01FC
:1050900083E00C941128CF93DF93D82FC92F81E0A0
:1050A0008093E9008FEF9091E800815095FD06C054
:1050B00095ED9A95F1F700008111F5CF8091E80008
:1050C00085FF16C050E040E068E070E08D2F9C2F17
:1050D0000E94732A8091E8008E778093E80088E030
:1050E000ED2FFC2FA4EAB2E001900D928A95E1F732
:1050F000DF91CF910895CF93603219F52091E102AD
:105100002430F9F4C091E900CF703091EC00232FE6
:10511000217030FD20E8C22B22E02093E90020918D
:10512000E80020FF0BC050E040E060E270E00E9429
:10513000732A8091E8008E778093E800CF70C09347
:10514000E900CF9108958091E002811109C00E9489
:105150004A2C0E94A72C8091E20084608093E20098
:1051600008951092E002089508950895089542E088
:1051700061EC81E00E94C62B42E261EC84E00E9477
:10518000C62B42E261EC82E00E94C62B42E260EC58
:1051900083E00C94C62B8091E302893089F148F4B6
:1051A000823009F49EC0833009F459C0813041F047
:1051B00008958A3009F485C08B3009F46BC00895D6
:1051C0008091E202813A09F049C08091E800877F2E
:1051D0008093E8008091E6029091E702892B61F4C8
:1051E00068E084EA92E070E00E94112B8091E80070
:1051F0008B778093E800089560E090E080E0F3CF43
:105200008091E202813251F58091E6029091E702AD
:105210008D7F892B19F58091E800877F8093E800C6
:105220008091E80082FF16C09091F3008091F20017
:10523000029729F48091F1008B7F813021F48091D5
:10524000F1008093AC028091E8008B778093E800B6
:105250000C94FA2B8091E1028111E2CF08958091A4
:10526000E202813AD9F78091E6029091E702892B18
:10527000A9F78091E800877F8093E8008091E8009B
:1052800080FFFCCF809125018093F1008091E800A0
:105290008E77DCCF8091E202813201F78091E602C5
:1052A0009091E702892BD1F68091E800877F809367
:1052B000E8000E94FA2B8091E402809325010C946F
:1052C0004E1F8091E202813249F68091E800877F8B
:1052D0008093E8000E94FA2B8091E5028093AD0252
:1052E00008958091E202813A09F0B8CF8091E800F8
:1052F000877F8093E8008091E80080FFFCCF809159
:10530000AD02C2CFCDB7DEB7A0970FB6F894DEBF1F
:105310000FBECDBF84B7877F84BF0FB6F894A89522
:1053200080916000886180936000109260000FBEE1
:1053300080E890E00FB6F89480936100909361004C
:105340000FBE0E94A11A0E944A2C0E94A72C809195
:10535000E20084608093E20078940E942F2F0E94E4
:10536000B11A8BE191E00E94251A13E08091E102CD
:105370008530C9F00E94BF1A8091E1028430D1F0DB
:105380000E94AF1A0E94B01AF1CF0E94CE268091DF
:10539000DF02882341F00E94FD26882321F00E942D
:1053A0005D2A0E944E1F8091E102853071F30E94B8
:1053B0001427E0CF1093E9008091E80082FFE0CF4E
:1053C0008091E80090E085FF09C050E040E060E295
:1053D00070E0CE0101960E94C22A91E08091E8001F
:1053E0008B778093E800992359F260E2CE01019611
:1053F0000E94FB12C5CF0C94FD29FC01CB01DA0100
:105400002F2F332723303105D1F070F421303105AF
:1054100009F44EC02230310569F48BE590E02AE5AD
:1054200035E02D933C9308952132310521F122324C
:10543000310571F190E080E030E020E0F2CFCF0163
:105440009927E230A9F08330910550F4009769F074
:10545000EAE4F5E0019771F7849190E09F01E1CFD4
:10546000E6E1F5E00397C1F3E5CFE6E5F5E0F4CF3B
:10547000E4E3F5E0F1CF63307105E0F6880F991FA2
:10548000FC01E252FE4F2081318189E090E0C9CFDA
:105490006330710578F6FB01EE0FFF1FE852FE4FF7
:1054A000208131818B529E4FFC01808190E0B9CFE9
:1054B00082E190E025EB35E0B4CF80E189BD82E167
:1054C00089BD09B400FEFDCF8091D8008F7D809307
:1054D000D8008091E00082608093E0008091E0003D
:1054E00081FDFCCF0895AF92BF92CF92DF92FF92E1
:1054F0000F931F93CF93DF936C01EB018A010E94FE
:10550000192CF82E811123C00115110539F0F8016D
:1055100080819181C81BD90BC80ED91EB12CA12C3A
:105520002097A9F08091E80085FD22C08091E800D5
:105530008E778093E80001151105A1F0F8018081B4
:105540009181A80EB91EB182A08285E0F82E8F2D20
:10555000DF91CF911F910F91FF90DF90CF90BF907F
:10556000AF9008950E94192C8823D1F2F82EEFCF26
:10557000F60181916F018093F1002197FFEFAF1A3F
:10558000BF0ACECFAF92BF92CF92DF92FF920F931E
:105590001F93CF93DF936C01EB018A010E94192CBA
:1055A000F82E811123C00115110539F0F801808111
:1055B0009181C81BD90BC80ED91EB12CA12C2097E4
:1055C000A9F08091E80085FD22C08091E8008B77EA
:1055D0008093E80001151105A1F0F8018081918107
:1055E000A80EB91EB182A08285E0F82E8F2DDF9122
:1055F000CF911F910F91FF90DF90CF90BF90AF9010
:1056000008950E94192C8823D1F2F82EEFCF8091B3
:10561000F100F60181936F012197FFEFAF1ABF0AE6
:10562000CECFFC01CB012091E8023091E902261790
:10563000370790F0009729F42091E8002E77209307
:10564000E80040E0009751F4411108C08091E80063
:1056500082FF31C080E00895C901F3CF2091E102BB
:105660002223A9F12530A9F12091E80023FD2DC0C6
:105670002091E80022FDEACF2091E80020FFE2CF50
:105680003091F3002091F200009719F02830310595
:1056900058F041E02830310509F040E02091E80061
:1056A0002E772093E800CECF41914093F1000197EF
:1056B0002F5F3F4FE9CF8091E102882341F0853091
:1056C00041F08091E80083FFC1CF81E0089582E03E
:1056D000089583E00895FC01CB012091E802309108
:1056E000E9022617370790F0009729F42091E80087
:1056F0002E772093E80040E0009751F4411108C054
:105700008091E80082FF32C080E00895C901F3CFA4
:105710002091E1022223B1F12530B1F12091E8007E
:1057200023FD2EC02091E80022FDEACF2091E80061
:1057300020FFE2CF3091F3002091F200009719F0A2
:105740002830310558F041E02830310509F040E0BB
:105750002091E8002E772093E800CECF449140932B
:10576000F100319601972F5F3F4FE8CF8091E10222
:10577000882341F0853041F08091E80083FFC0CF5D
:1057800081E0089582E0089583E00895982F97308E
:1057900028F08F708093E90081E008959093E900EC
:1057A000242F762F50E0981731F07091EC00209163
:1057B000ED005091F00021FD02C09F5FE8CF3091D5
:1057C000EB003E7F3093EB003091ED003D7F309356
:1057D000ED003091EB0031603093EB007093EC0002
:1057E0002093ED005093F0002091EE0027FDE5CFCF
:1057F00080E008958091E20287FF13C08091E80065
:1058000082FF06C08091E8008B778093E80004C097
:105810008091E1028111F2CF08958091E102882305
:10582000D9F38091E80080FFF8CF8091E8008E776F
:10583000ECCF2091E4003091E50095E6A90120919C
:10584000EC00822F817020FF06C08091E80080FF6D
:1058500006C080E008952091E80022FD1AC08091E2
:10586000E102882389F0853089F08091EB0085FD85
:105870000FC02091E4003091E50042175307F9F280
:105880009150E1F684E0089582E0089583E0089560
:1058900081E008950E94B82C0E94C02CE0EEF0E058
:1058A000808181608083E8EDF0E080818F77808364
:1058B00019BCA7EDB0E08C918E7F8C9380818F7E98
:1058C00080831092E00208950F931F93CF93DF938C
:1058D0000E94B82C0E94C02CC8EDD0E088818F7740
:1058E000888388818068888388818F7D888319BCBC
:1058F0001092E1021092DD021092DF021092DE029D
:1059000000EE10E0F80180818B7F808388818160C8
:10591000888342E060E080E00E94C62BE1EEF0E088
:1059200080818E7F8083E2EEF0E0808181608083E1
:10593000808188608083F80180818E7F8083888168
:1059400080618883DF91CF911F910F910895E8EDD9
:10595000F0E080818F7E8083E7EDF0E080818160E0
:10596000808384E082BF81E08093E0020C94642C09
:10597000E8EDF0E080818E7F80831092E200089550
:105980001092DA001092E10008951F920F920FB664
:105990000F9211242F933F934F935F936F937F93B5
:1059A0008F939F93AF93BF93EF93FF938091E10009
:1059B00082FF0BC08091E20082FF07C08091E1006E
:1059C0008B7F8093E1000E942E2F8091DA0080FF70
:1059D00019C08091D80080FF15C08091DA008E7FB9
:1059E0008093DA008091D90080FF94C080E189BD66
:1059F00082E189BD09B400FEFDCF81E08093E10220
:105A00000E94A3288091E10080FF19C08091E200EC
:105A100080FF15C08091E2008E7F8093E20080912C
:105A2000E20080618093E2008091D80080628093E0
:105A3000D80019BC85E08093E1020E94B5288091CE
:105A4000E10084FF29C08091E20084FF25C080E14D
:105A500089BD82E189BD09B400FEFDCF8091D800E7
:105A60008F7D8093D8008091E1008F7E8093E1004C
:105A70008091E2008F7E8093E2008091E20081605D
:105A80008093E2008091DD02882309F449C084E01C
:105A90008093E1020E94B6288091E10083FF29C033
:105AA0008091E20083FF25C08091E100877F809391
:105AB000E10082E08093E1021092DD028091E1003A
:105AC0008E7F8093E1008091E2008E7F8093E200E0
:105AD0008091E20080618093E20042E060E080E03B
